S01700004763634170706C69636174696F6E312E737265635B
S113000009C010C00FC00EC00DC00CC00BC00AC088
S113001009C008C011271FBFCFE5D0E0DEBFCDBFA8
S113002002D04AC0EDCFCF93DF9300D000D000D0F0
S1130030CDB7DEB748EC50E0CE5FDF4F58834A932C
S1130040C150D04041E950E0CC5FDF4F58834A9320
S1130050C350D040CA5FDF4F18831A93C550D040B5
S1130060CB5FDF4F49915881C650D040452B79F082
S1130070CB5FDF4F49915881C650D0404150510B5E
S1130080CA5FDF4F58834A93C550D040E9CFCF5F52
S1130090DF4F69917881C250D040CD5FDF4F4991E5
S11300A05881C450D040460F571FCA5FDF4F588352
S10F00B04A93C550D040D4CFF894FFCF41
S9030000FC
